{
  "contractName": "Counter",
  "abi": [
    {
      "inputs": [],
      "name": "count",
      "outputs": [
        {
          "internalType": "uint256",
          "name": "",
          "type": "uint256"
        }
      ],
      "stateMutability": "view",
      "type": "function",
      "constant": true
    },
    {
      "inputs": [],
      "name": "increment",
      "outputs": [],
      "stateMutability": "nonpayable",
      "type": "function"
    }
  ],
  "bytecode": "0x608060405234801561001057600080fd5b50610151806100206000396000f3fe608060405234801561001057600080fd5b50600436106100365760003560e01c806306661abd1461003b578063d09de08a14610059575b600080fd5b610043610063565b604051610050919061009d565b60405180910390f35b610061610069565b005b60005481565b600160008082825461007b91906100e7565b92505081905550565b6000819050919050565b61009781610084565b82525050565b60006020820190506100b2600083018461008e565b92915050565b7f4e487b7100000000000000000000000000000000000000000000000000000000600052601160045260246000fd5b60006100f282610084565b91506100fd83610084565b9250828201905080821115610115576101146100b8565b5b9291505056fea2646970667358221220672588a5e70542ecd4eb9f90f580437408242801e66f3a1ab9a66c34ba97f91664736f6c63430008130033",
  "immutableReferences": {},
  "source": "// SPDX-License-Identifier: MIT\r\npragma solidity ^0.8.19;\r\n\r\ncontract Counter {\r\n    uint public count;\r\n\r\n    function increment() external {\r\n        count += 1;\r\n    }\r\n}\r\n\r\ninterface ICounter {\r\n    function count() external view returns(uint);\r\n    function increment() external;\r\n}\r\n\r\ncontract InterfaceContract {\r\n    function incrementCounter(address _counter) external {  // this function receives the _counter address that indicates the Contract using interface\r\n        ICounter(_counter).increment();\r\n    }\r\n\r\n    function getCounter (address _counter) external view returns (uint) {\r\n        return ICounter(_counter).count();\r\n    }\r\n}\r\n\r\n// Uniswap\r\ninterface UniswapV2Factory {\r\n    function getPair(address tokenA, address tokenB) external view returns (address pair);\r\n}\r\n\r\ninterface UniswapV2Pair {\r\n    function getReserves() external view returns (uint112 reserve0, uint112 reserve1, uint32 blockTimestampLast);\r\n}\r\n\r\ncontract Uniswap {\r\n    address private factory = 0x9515f0745556b30216A00F182a8fe5c1c2503e87;\r\n    address private dai = 0x77EFa3499341327F18a6D0d259129A528e5bdF24;\r\n    address private weth = 0xB49b3eb96c52E88208f070FC95e2D35309a7CACd;\r\n\r\n    function getTokenReserves() external view returns (uint, uint) {\r\n        address pair = UniswapV2Factory(factory).getPair(dai, weth);\r\n        (uint reserve0, uint reserve1, ) = UniswapV2Pair(pair).getReserves();\r\n        return (reserve0, reserve1);\r\n    }\r\n}",
  "sourcePath": "E:\\myGitSpace\\SolidityExample\\Interface\\contracts\\Counter.sol",
  "compiler": {
    "name": "solc",
    "version": "0.8.19+commit.7dd6d404.Emscripten.clang"
  },
  "schemaVersion": "3.4.16",
  "updatedAt": "2024-01-30T14:51:52.569Z",
  "networkType": "ethereum",
  "devdoc": {
    "kind": "dev",
    "methods": {},
    "version": 1
  },
  "userdoc": {
    "kind": "user",
    "methods": {},
    "version": 1
  }
}