{
  "contractName": "InterfaceContract",
  "abi": [
    {
      "inputs": [
        {
          "internalType": "address",
          "name": "_counter",
          "type": "address"
        }
      ],
      "name": "incrementCounter",
      "outputs": [],
      "stateMutability": "nonpayable",
      "type": "function"
    },
    {
      "inputs": [
        {
          "internalType": "address",
          "name": "_counter",
          "type": "address"
        }
      ],
      "name": "getCounter",
      "outputs": [
        {
          "internalType": "uint256",
          "name": "",
          "type": "uint256"
        }
      ],
      "stateMutability": "view",
      "type": "function",
      "constant": true
    }
  ],
  "bytecode": "0x608060405234801561001057600080fd5b506102b5806100206000396000f3fe608060405234801561001057600080fd5b50600436106100365760003560e01c8063e5910ae71461003b578063f07ec37314610057575b600080fd5b610055600480360381019061005091906101c5565b610087565b005b610071600480360381019061006c91906101c5565b6100ea565b60405161007e919061020b565b60405180910390f35b8073ffffffffffffffffffffffffffffffffffffffff1663d09de08a6040518163ffffffff1660e01b8152600401600060405180830381600087803b1580156100cf57600080fd5b505af11580156100e3573d6000803e3d6000fd5b5050505050565b60008173ffffffffffffffffffffffffffffffffffffffff166306661abd6040518163ffffffff1660e01b8152600401602060405180830381865afa158015610137573d6000803e3d6000fd5b505050506040513d601f19601f8201168201806040525081019061015b9190610252565b9050919050565b600080fd5b600073ffffffffffffffffffffffffffffffffffffffff82169050919050565b600061019282610167565b9050919050565b6101a281610187565b81146101ad57600080fd5b50565b6000813590506101bf81610199565b92915050565b6000602082840312156101db576101da610162565b5b60006101e9848285016101b0565b91505092915050565b6000819050919050565b610205816101f2565b82525050565b600060208201905061022060008301846101fc565b92915050565b61022f816101f2565b811461023a57600080fd5b50565b60008151905061024c81610226565b92915050565b60006020828403121561026857610267610162565b5b60006102768482850161023d565b9150509291505056fea264697066735822122019104d96ad4a55bcbddb517d04f4ecacf94bcf3a20006eabaa66b1ffeb65c89f64736f6c63430008130033",
  "immutableReferences": {},
  "source": "// SPDX-License-Identifier: MIT\r\npragma solidity ^0.8.19;\r\n\r\ncontract Counter {\r\n    uint public count;\r\n\r\n    function increment() external {\r\n        count += 1;\r\n    }\r\n}\r\n\r\ninterface ICounter {\r\n    function count() external view returns(uint);\r\n    function increment() external;\r\n}\r\n\r\ncontract InterfaceContract {\r\n    function incrementCounter(address _counter) external {  // this function receives the _counter address that indicates the Contract using interface\r\n        ICounter(_counter).increment();\r\n    }\r\n\r\n    function getCounter (address _counter) external view returns (uint) {\r\n        return ICounter(_counter).count();\r\n    }\r\n}\r\n\r\n// Uniswap\r\ninterface UniswapV2Factory {\r\n    function getPair(address tokenA, address tokenB) external view returns (address pair);\r\n}\r\n\r\ninterface UniswapV2Pair {\r\n    function getReserves() external view returns (uint112 reserve0, uint112 reserve1, uint32 blockTimestampLast);\r\n}\r\n\r\ncontract Uniswap {\r\n    address private factory = 0x9515f0745556b30216A00F182a8fe5c1c2503e87;\r\n    address private dai = 0x77EFa3499341327F18a6D0d259129A528e5bdF24;\r\n    address private weth = 0xB49b3eb96c52E88208f070FC95e2D35309a7CACd;\r\n\r\n    function getTokenReserves() external view returns (uint, uint) {\r\n        address pair = UniswapV2Factory(factory).getPair(dai, weth);\r\n        (uint reserve0, uint reserve1, ) = UniswapV2Pair(pair).getReserves();\r\n        return (reserve0, reserve1);\r\n    }\r\n}",
  "sourcePath": "E:\\myGitSpace\\SolidityExample\\Interface\\contracts\\Counter.sol",
  "compiler": {
    "name": "solc",
    "version": "0.8.19+commit.7dd6d404.Emscripten.clang"
  },
  "schemaVersion": "3.4.16",
  "updatedAt": "2024-01-30T14:51:52.572Z",
  "networkType": "ethereum",
  "devdoc": {
    "kind": "dev",
    "methods": {},
    "version": 1
  },
  "userdoc": {
    "kind": "user",
    "methods": {},
    "version": 1
  }
}