{
  "contractName": "Uniswap",
  "abi": [
    {
      "inputs": [],
      "name": "getTokenReserves",
      "outputs": [
        {
          "internalType": "uint256",
          "name": "",
          "type": "uint256"
        },
        {
          "internalType": "uint256",
          "name": "",
          "type": "uint256"
        }
      ],
      "stateMutability": "view",
      "type": "function",
      "constant": true
    }
  ],
  "bytecode": "0x6080604052739515f0745556b30216a00f182a8fe5c1c2503e876000806101000a81548173ffffffffffffffffffffffffffffffffffffffff021916908373ffffffffffffffffffffffffffffffffffffffff1602179055507377efa3499341327f18a6d0d259129a528e5bdf24600160006101000a81548173ffffffffffffffffffffffffffffffffffffffff021916908373ffffffffffffffffffffffffffffffffffffffff16021790555073b49b3eb96c52e88208f070fc95e2d35309a7cacd600260006101000a81548173ffffffffffffffffffffffffffffffffffffffff021916908373ffffffffffffffffffffffffffffffffffffffff16021790555034801561010e57600080fd5b506103f08061011e6000396000f3fe608060405234801561001057600080fd5b506004361061002b5760003560e01c8063b9cf500514610030575b600080fd5b61003861004f565b6040516100469291906101f4565b60405180910390f35b60008060008060009054906101000a900473ffffffffffffffffffffffffffffffffffffffff1673ffffffffffffffffffffffffffffffffffffffff1663e6a43905600160009054906101000a900473ffffffffffffffffffffffffffffffffffffffff16600260009054906101000a900473ffffffffffffffffffffffffffffffffffffffff166040518363ffffffff1660e01b81526004016100f492919061025e565b602060405180830381865afa158015610111573d6000803e3d6000fd5b505050506040513d601f19601f8201168201806040525081019061013591906102b8565b90506000808273ffffffffffffffffffffffffffffffffffffffff16630902f1ac6040518163ffffffff1660e01b8152600401606060405180830381865afa158015610185573d6000803e3d6000fd5b505050506040513d601f19601f820116820180604052508101906101a99190610367565b506dffffffffffffffffffffffffffff1691506dffffffffffffffffffffffffffff1691508181945094505050509091565b6000819050919050565b6101ee816101db565b82525050565b600060408201905061020960008301856101e5565b61021660208301846101e5565b9392505050565b600073ffffffffffffffffffffffffffffffffffffffff82169050919050565b60006102488261021d565b9050919050565b6102588161023d565b82525050565b6000604082019050610273600083018561024f565b610280602083018461024f565b9392505050565b600080fd5b6102958161023d565b81146102a057600080fd5b50565b6000815190506102b28161028c565b92915050565b6000602082840312156102ce576102cd610287565b5b60006102dc848285016102a3565b91505092915050565b60006dffffffffffffffffffffffffffff82169050919050565b610308816102e5565b811461031357600080fd5b50565b600081519050610325816102ff565b92915050565b600063ffffffff82169050919050565b6103448161032b565b811461034f57600080fd5b50565b6000815190506103618161033b565b92915050565b6000806000606084860312156103805761037f610287565b5b600061038e86828701610316565b935050602061039f86828701610316565b92505060406103b086828701610352565b915050925092509256fea26469706673582212205289612576f3b99d126627162b04de105df4df21ffea26579ae01004825330b964736f6c63430008130033",
  "immutableReferences": {},
  "source": "// SPDX-License-Identifier: MIT\r\npragma solidity ^0.8.19;\r\n\r\ncontract Counter {\r\n    uint public count;\r\n\r\n    function increment() external {\r\n        count += 1;\r\n    }\r\n}\r\n\r\ninterface ICounter {\r\n    function count() external view returns(uint);\r\n    function increment() external;\r\n}\r\n\r\ncontract InterfaceContract {\r\n    function incrementCounter(address _counter) external {  // this function receives the _counter address that indicates the Contract using interface\r\n        ICounter(_counter).increment();\r\n    }\r\n\r\n    function getCounter (address _counter) external view returns (uint) {\r\n        return ICounter(_counter).count();\r\n    }\r\n}\r\n\r\n// Uniswap\r\ninterface UniswapV2Factory {\r\n    function getPair(address tokenA, address tokenB) external view returns (address pair);\r\n}\r\n\r\ninterface UniswapV2Pair {\r\n    function getReserves() external view returns (uint112 reserve0, uint112 reserve1, uint32 blockTimestampLast);\r\n}\r\n\r\ncontract Uniswap {\r\n    address private factory = 0x9515f0745556b30216A00F182a8fe5c1c2503e87;\r\n    address private dai = 0x77EFa3499341327F18a6D0d259129A528e5bdF24;\r\n    address private weth = 0xB49b3eb96c52E88208f070FC95e2D35309a7CACd;\r\n\r\n    function getTokenReserves() external view returns (uint, uint) {\r\n        address pair = UniswapV2Factory(factory).getPair(dai, weth);\r\n        (uint reserve0, uint reserve1, ) = UniswapV2Pair(pair).getReserves();\r\n        return (reserve0, reserve1);\r\n    }\r\n}",
  "sourcePath": "E:\\myGitSpace\\SolidityExample\\Interface\\contracts\\Counter.sol",
  "compiler": {
    "name": "solc",
    "version": "0.8.19+commit.7dd6d404.Emscripten.clang"
  },
  "schemaVersion": "3.4.16",
  "updatedAt": "2024-01-30T14:51:52.576Z",
  "networkType": "ethereum",
  "devdoc": {
    "kind": "dev",
    "methods": {},
    "version": 1
  },
  "userdoc": {
    "kind": "user",
    "methods": {},
    "version": 1
  }
}