{
  "contractName": "Payable",
  "abi": [
    {
      "inputs": [],
      "stateMutability": "payable",
      "type": "constructor",
      "payable": true
    },
    {
      "inputs": [],
      "name": "owner",
      "outputs": [
        {
          "internalType": "address payable",
          "name": "",
          "type": "address"
        }
      ],
      "stateMutability": "view",
      "type": "function",
      "constant": true
    },
    {
      "inputs": [],
      "name": "withdraw",
      "outputs": [],
      "stateMutability": "nonpayable",
      "type": "function"
    }
  ],
  "bytecode": "0x6080604052336000806101000a81548173ffffffffffffffffffffffffffffffffffffffff021916908373ffffffffffffffffffffffffffffffffffffffff1602179055506102b2806100536000396000f3fe608060405234801561001057600080fd5b50600436106100365760003560e01c80633ccfd60b1461003b5780638da5cb5b14610045575b600080fd5b610043610063565b005b61004d610139565b60405161005a919061019e565b60405180910390f35b600047905060008060009054906101000a900473ffffffffffffffffffffffffffffffffffffffff1673ffffffffffffffffffffffffffffffffffffffff16826040516100af906101ea565b60006040518083038185875af1925050503d80600081146100ec576040519150601f19603f3d011682016040523d82523d6000602084013e6100f1565b606091505b5050905080610135576040517f08c379a000000000000000000000000000000000000000000000000000000000815260040161012c9061025c565b60405180910390fd5b5050565b60008054906101000a900473ffffffffffffffffffffffffffffffffffffffff1681565b600073ffffffffffffffffffffffffffffffffffffffff82169050919050565b60006101888261015d565b9050919050565b6101988161017d565b82525050565b60006020820190506101b3600083018461018f565b92915050565b600081905092915050565b50565b60006101d46000836101b9565b91506101df826101c4565b600082019050919050565b60006101f5826101c7565b9150819050919050565b600082825260208201905092915050565b7f6661696c65640000000000000000000000000000000000000000000000000000600082015250565b60006102466006836101ff565b915061025182610210565b602082019050919050565b6000602082019050818103600083015261027581610239565b905091905056fea2646970667358221220077a27744110a8ce435de90977b1c8f68310584da09234535525773e14a373c064736f6c63430008130033",
  "immutableReferences": {},
  "source": "// RPDX-License-Identifier: MIT\r\npragma solidity ^0.8.19;\r\n\r\ncontract Payable {\r\n    address payable public owner;\r\n    constructor() payable {\r\n        owner = payable(msg.sender);\r\n    }\r\n\r\n    function withdraw() public {\r\n        uint amount = address(this).balance;\r\n        (bool success, ) = owner.call{value: amount}(\"\");\r\n        if(!success) {\r\n            revert(\"failed\");\r\n        }\r\n        \r\n    }\r\n}",
  "sourcePath": "E:\\myGitSpace\\SolidityExample\\Payable\\contracts\\Payable.sol",
  "compiler": {
    "name": "solc",
    "version": "0.8.19+commit.7dd6d404.Emscripten.clang"
  },
  "schemaVersion": "3.4.16",
  "updatedAt": "2024-01-30T15:50:17.127Z",
  "networkType": "ethereum",
  "devdoc": {
    "kind": "dev",
    "methods": {},
    "version": 1
  },
  "userdoc": {
    "kind": "user",
    "methods": {},
    "version": 1
  }
}