{
  "contractName": "Primitives",
  "abi": [
    {
      "inputs": [],
      "name": "addr",
      "outputs": [
        {
          "internalType": "address",
          "name": "",
          "type": "address"
        }
      ],
      "stateMutability": "view",
      "type": "function",
      "constant": true
    },
    {
      "inputs": [],
      "name": "boo",
      "outputs": [
        {
          "internalType": "bool",
          "name": "",
          "type": "bool"
        }
      ],
      "stateMutability": "view",
      "type": "function",
      "constant": true
    },
    {
      "inputs": [],
      "name": "i256",
      "outputs": [
        {
          "internalType": "int256",
          "name": "",
          "type": "int256"
        }
      ],
      "stateMutability": "view",
      "type": "function",
      "constant": true
    },
    {
      "inputs": [],
      "name": "i8",
      "outputs": [
        {
          "internalType": "int8",
          "name": "",
          "type": "int8"
        }
      ],
      "stateMutability": "view",
      "type": "function",
      "constant": true
    },
    {
      "inputs": [],
      "name": "u",
      "outputs": [
        {
          "internalType": "uint256",
          "name": "",
          "type": "uint256"
        }
      ],
      "stateMutability": "view",
      "type": "function",
      "constant": true
    },
    {
      "inputs": [],
      "name": "u16",
      "outputs": [
        {
          "internalType": "uint16",
          "name": "",
          "type": "uint16"
        }
      ],
      "stateMutability": "view",
      "type": "function",
      "constant": true
    },
    {
      "inputs": [],
      "name": "u8",
      "outputs": [
        {
          "internalType": "uint8",
          "name": "",
          "type": "uint8"
        }
      ],
      "stateMutability": "view",
      "type": "function",
      "constant": true
    }
  ],
  "bytecode": "0x608060405260016000806101000a81548160ff0219169083151502179055506001600060016101000a81548160ff021916908360ff16021790555061ffff600060026101000a81548161ffff021916908361ffff160217905550620100006001557ffffffffffffffffffffffffffffffffffffffffffffffffffffffffffffff6d46002556020600360006101000a81548160ff021916908360000b60ff160217905550739515f0745556b30216a00f182a8fe5c1c2503e87600360016101000a81548173ffffffffffffffffffffffffffffffffffffffff021916908373ffffffffffffffffffffffffffffffffffffffff16021790555034801561010457600080fd5b506103a7806101146000396000f3fe608060405234801561001057600080fd5b506004361061007d5760003560e01c8063767800de1161005b578063767800de146100dc578063921cda74146100fa578063ab3a58a314610118578063c6a898c5146101365761007d565b80630a6b4e06146100825780634b3df200146100a05780634c27fd62146100be575b600080fd5b61008a610154565b60405161009791906101ee565b60405180910390f35b6100a8610168565b6040516100b59190610224565b60405180910390f35b6100c6610179565b6040516100d39190610258565b60405180910390f35b6100e461017f565b6040516100f191906102b4565b60405180910390f35b6101026101a5565b60405161010f91906102eb565b60405180910390f35b6101206101b8565b60405161012d9190610322565b60405180910390f35b61013e6101cb565b60405161014b9190610356565b60405180910390f35b600060029054906101000a900461ffff1681565b60008054906101000a900460ff1681565b60025481565b600360019054906101000a900473ffffffffffffffffffffffffffffffffffffffff1681565b600360009054906101000a900460000b81565b600060019054906101000a900460ff1681565b60015481565b600061ffff82169050919050565b6101e8816101d1565b82525050565b600060208201905061020360008301846101df565b92915050565b60008115159050919050565b61021e81610209565b82525050565b60006020820190506102396000830184610215565b92915050565b6000819050919050565b6102528161023f565b82525050565b600060208201905061026d6000830184610249565b92915050565b600073ffffffffffffffffffffffffffffffffffffffff82169050919050565b600061029e82610273565b9050919050565b6102ae81610293565b82525050565b60006020820190506102c960008301846102a5565b92915050565b60008160000b9050919050565b6102e5816102cf565b82525050565b600060208201905061030060008301846102dc565b92915050565b600060ff82169050919050565b61031c81610306565b82525050565b60006020820190506103376000830184610313565b92915050565b6000819050919050565b6103508161033d565b82525050565b600060208201905061036b6000830184610347565b9291505056fea264697066735822122011c5abe6a25864e604bbb1b036cb1a0123d87d124f77e87cc89224749c3058a664736f6c63430008130033",
  "immutableReferences": {},
  "source": "// SPDX-License-Identifier: MIT\r\npragma solidity ^0.8.19;\r\n\r\ncontract Primitives {\r\n    bool public boo = true;\r\n    uint8 public u8 = 1;\r\n    uint16 public u16 = 65535;\r\n    uint public u = 65536;\r\n\r\n    int public i256 = -2348;\r\n    int8 public i8 = 32;\r\n\r\n    address public addr = 0x9515f0745556b30216A00F182a8fe5c1c2503e87;\r\n}\r\n",
  "sourcePath": "E:\\myGitSpace\\SolidityExample\\Primitive\\contracts\\Primitives.sol",
  "compiler": {
    "name": "solc",
    "version": "0.8.19+commit.7dd6d404.Emscripten.clang"
  },
  "schemaVersion": "3.4.16",
  "updatedAt": "2024-01-28T20:31:32.201Z",
  "networkType": "ethereum",
  "devdoc": {
    "kind": "dev",
    "methods": {},
    "version": 1
  },
  "userdoc": {
    "kind": "user",
    "methods": {},
    "version": 1
  }
}