{
  "contractName": "Error",
  "abi": [
    {
      "inputs": [
        {
          "internalType": "uint256",
          "name": "balance",
          "type": "uint256"
        },
        {
          "internalType": "uint256",
          "name": "withdrawAmount",
          "type": "uint256"
        }
      ],
      "name": "withdrawError",
      "type": "error"
    },
    {
      "inputs": [
        {
          "internalType": "uint256",
          "name": "_i",
          "type": "uint256"
        }
      ],
      "name": "testRequire",
      "outputs": [],
      "stateMutability": "pure",
      "type": "function",
      "constant": true
    },
    {
      "inputs": [
        {
          "internalType": "uint256",
          "name": "_i",
          "type": "uint256"
        }
      ],
      "name": "testRevert",
      "outputs": [],
      "stateMutability": "pure",
      "type": "function",
      "constant": true
    },
    {
      "inputs": [
        {
          "internalType": "address",
          "name": "_wallet",
          "type": "address"
        },
        {
          "internalType": "uint256",
          "name": "_withdrawAmount",
          "type": "uint256"
        }
      ],
      "name": "testWithdrawError",
      "outputs": [],
      "stateMutability": "view",
      "type": "function",
      "constant": true
    }
  ],
  "bytecode": "0x608060405234801561001057600080fd5b506103eb806100206000396000f3fe608060405234801561001057600080fd5b50600436106100415760003560e01c8063209877671461004657806373f7d2f714610062578063b8bd717f1461007e575b600080fd5b610060600480360381019061005b91906101c9565b61009a565b005b61007c60048036038101906100779190610254565b6100e0565b005b610098600480360381019061009391906101c9565b610148565b005b601481116100dd576040517f08c379a00000000000000000000000000000000000000000000000000000000081526004016100d4906102f1565b60405180910390fd5b50565b60008273ffffffffffffffffffffffffffffffffffffffff16319050818110156101435780826040517f5a6c146d00000000000000000000000000000000000000000000000000000000815260040161013a929190610320565b60405180910390fd5b505050565b600a811161018b576040517f08c379a000000000000000000000000000000000000000000000000000000000815260040161018290610395565b60405180910390fd5b50565b600080fd5b6000819050919050565b6101a681610193565b81146101b157600080fd5b50565b6000813590506101c38161019d565b92915050565b6000602082840312156101df576101de61018e565b5b60006101ed848285016101b4565b91505092915050565b600073ffffffffffffffffffffffffffffffffffffffff82169050919050565b6000610221826101f6565b9050919050565b61023181610216565b811461023c57600080fd5b50565b60008135905061024e81610228565b92915050565b6000806040838503121561026b5761026a61018e565b5b60006102798582860161023f565b925050602061028a858286016101b4565b9150509250929050565b600082825260208201905092915050565b7f726576657274696e672e2e2e6d757374206c6172676572207468616e20313021600082015250565b60006102db602083610294565b91506102e6826102a5565b602082019050919050565b6000602082019050818103600083015261030a816102ce565b9050919050565b61031a81610193565b82525050565b60006040820190506103356000830185610311565b6103426020830184610311565b9392505050565b7f6d757374206c6172676572207468616e20313021000000000000000000000000600082015250565b600061037f601483610294565b915061038a82610349565b602082019050919050565b600060208201905081810360008301526103ae81610372565b905091905056fea26469706673582212208c83f1258bb395e707481c464f03d1793015f5d24b8bf8dc595e8025abaef0e364736f6c63430008130033",
  "immutableReferences": {},
  "source": "// SPDX-License-Identifier: MIT\r\npragma solidity ^0.8.19;\r\n\r\ncontract Error {\r\n    function testRequire(uint _i) public pure {\r\n        require(_i > 10, \"must larger than 10!\");\r\n    }\r\n\r\n    function testRevert(uint _i) public pure {\r\n        if(_i <= 20) {\r\n            revert(\"reverting...must larger than 10!\");\r\n        }\r\n    }\r\n\r\n    error withdrawError(uint balance, uint withdrawAmount);\r\n\r\n    function testWithdrawError(address _wallet, uint _withdrawAmount) public view {\r\n        uint balance = _wallet.balance;\r\n        if(balance < _withdrawAmount) {\r\n            revert withdrawError({balance: balance, withdrawAmount: _withdrawAmount});\r\n        }\r\n    }\r\n}\r\n",
  "sourcePath": "E:\\myGitSpace\\SolidityExample\\Error\\contracts\\Error.sol",
  "compiler": {
    "name": "solc",
    "version": "0.8.19+commit.7dd6d404.Emscripten.clang"
  },
  "schemaVersion": "3.4.16",
  "updatedAt": "2024-01-30T02:58:01.792Z",
  "networkType": "ethereum",
  "devdoc": {
    "kind": "dev",
    "methods": {},
    "version": 1
  },
  "userdoc": {
    "kind": "user",
    "methods": {},
    "version": 1
  }
}