{
  "contractName": "Array",
  "abi": [
    {
      "inputs": [
        {
          "internalType": "uint256",
          "name": "",
          "type": "uint256"
        }
      ],
      "name": "strArray",
      "outputs": [
        {
          "internalType": "string",
          "name": "",
          "type": "string"
        }
      ],
      "stateMutability": "view",
      "type": "function",
      "constant": true
    },
    {
      "inputs": [
        {
          "internalType": "uint256",
          "name": "",
          "type": "uint256"
        }
      ],
      "name": "strArray1",
      "outputs": [
        {
          "internalType": "string",
          "name": "",
          "type": "string"
        }
      ],
      "stateMutability": "view",
      "type": "function",
      "constant": true
    },
    {
      "inputs": [
        {
          "internalType": "uint256",
          "name": "",
          "type": "uint256"
        }
      ],
      "name": "strFixedArray",
      "outputs": [
        {
          "internalType": "string",
          "name": "",
          "type": "string"
        }
      ],
      "stateMutability": "view",
      "type": "function",
      "constant": true
    },
    {
      "inputs": [
        {
          "internalType": "uint256",
          "name": "index",
          "type": "uint256"
        }
      ],
      "name": "getArrayMember",
      "outputs": [
        {
          "internalType": "string",
          "name": "",
          "type": "string"
        }
      ],
      "stateMutability": "view",
      "type": "function",
      "constant": true
    },
    {
      "inputs": [],
      "name": "getWholeArray",
      "outputs": [
        {
          "internalType": "string[]",
          "name": "",
          "type": "string[]"
        }
      ],
      "stateMutability": "view",
      "type": "function",
      "constant": true
    },
    {
      "inputs": [
        {
          "internalType": "string",
          "name": "_str",
          "type": "string"
        }
      ],
      "name": "push",
      "outputs": [],
      "stateMutability": "nonpayable",
      "type": "function"
    },
    {
      "inputs": [],
      "name": "pop",
      "outputs": [],
      "stateMutability": "nonpayable",
      "type": "function"
    },
    {
      "inputs": [],
      "name": "getLength",
      "outputs": [
        {
          "internalType": "uint256",
          "name": "",
          "type": "uint256"
        }
      ],
      "stateMutability": "view",
      "type": "function",
      "constant": true
    },
    {
      "inputs": [
        {
          "internalType": "uint256",
          "name": "index",
          "type": "uint256"
        }
      ],
      "name": "removeCertainMember",
      "outputs": [],
      "stateMutability": "nonpayable",
      "type": "function"
    }
  ],
  "bytecode": "0x608060405260405180606001604052806040518060400160405280600481526020017f616b61690000000000000000000000000000000000000000000000000000000081525081526020016040518060400160405280600581526020017f7369726f6900000000000000000000000000000000000000000000000000000081525081526020016040518060400160405280600581526020017f6b75726f690000000000000000000000000000000000000000000000000000008152508152506001906003620000d0929190620000e5565b50348015620000de57600080fd5b5062000533565b82805482825590600052602060002090810192821562000132579160200282015b82811115620001315782518290816200012091906200044c565b509160200191906001019062000106565b5b50905062000141919062000145565b5090565b5b808211156200016957600081816200015f91906200016d565b5060010162000146565b5090565b5080546200017b906200023b565b6000825580601f106200018f5750620001b0565b601f016020900490600052602060002090810190620001af9190620001b3565b5b50565b5b80821115620001ce576000816000905550600101620001b4565b5090565b600081519050919050565b7f4e487b7100000000000000000000000000000000000000000000000000000000600052604160045260246000fd5b7f4e487b7100000000000000000000000000000000000000000000000000000000600052602260045260246000fd5b600060028204905060018216806200025457607f821691505b6020821081036200026a57620002696200020c565b5b50919050565b60008190508160005260206000209050919050565b60006020601f8301049050919050565b600082821b905092915050565b600060088302620002d47fffffffffffffffffffffffffffffffffffffffffffffffffffffffffffffffff8262000295565b620002e0868362000295565b95508019841693508086168417925050509392505050565b6000819050919050565b6000819050919050565b60006200032d620003276200032184620002f8565b62000302565b620002f8565b9050919050565b6000819050919050565b62000349836200030c565b62000361620003588262000334565b848454620002a2565b825550505050565b600090565b6200037862000369565b620003858184846200033e565b505050565b5b81811015620003ad57620003a16000826200036e565b6001810190506200038b565b5050565b601f821115620003fc57620003c68162000270565b620003d18462000285565b81016020851015620003e1578190505b620003f9620003f08562000285565b8301826200038a565b50505b505050565b600082821c905092915050565b6000620004216000198460080262000401565b1980831691505092915050565b60006200043c83836200040e565b9150826002028217905092915050565b6200045782620001d2565b67ffffffffffffffff811115620004735762000472620001dd565b5b6200047f82546200023b565b6200048c828285620003b1565b600060209050601f831160018114620004c45760008415620004af578287015190505b620004bb85826200042e565b8655506200052b565b601f198416620004d48662000270565b60005b82811015620004fe57848901518255600182019150602085019450602081019050620004d7565b868310156200051e57848901516200051a601f8916826200040e565b8355505b6001600288020188555050505b505050505050565b610d3780620005436000396000f3fe608060405234801561001057600080fd5b50600436106100935760003560e01c806382370aba1161006657806382370aba14610130578063a4ece52c14610160578063be1c766b1461016a578063bf76539914610188578063e87bd7c7146101a657610093565b80632a9b4788146100985780634456f7d8146100c85780634931c008146100e45780634f3d057a14610114575b600080fd5b6100b260048036038101906100ad91906106a4565b6101d6565b6040516100bf9190610761565b60405180910390f35b6100e260048036038101906100dd91906106a4565b610286565b005b6100fe60048036038101906100f991906106a4565b6102b3565b60405161010b9190610761565b60405180910390f35b61012e600480360381019061012991906107e8565b61035f565b005b61014a600480360381019061014591906106a4565b6103a1565b6040516101579190610761565b60405180910390f35b610168610444565b005b610172610476565b60405161017f9190610844565b60405180910390f35b610190610482565b60405161019d919061096b565b60405180910390f35b6101c060048036038101906101bb91906106a4565b61055b565b6040516101cd9190610761565b60405180910390f35b6060600182815481106101ec576101eb61098d565b5b906000526020600020018054610201906109eb565b80601f016020809104026020016040519081016040528092919081815260200182805461022d906109eb565b801561027a5780601f1061024f5761010080835404028352916020019161027a565b820191906000526020600020905b81548152906001019060200180831161025d57829003601f168201915b50505050509050919050565b6000818154811061029a5761029961098d565b5b9060005260206000200160006102b09190610607565b50565b600181815481106102c357600080fd5b9060005260206000200160009150905080546102de906109eb565b80601f016020809104026020016040519081016040528092919081815260200182805461030a906109eb565b80156103575780601f1061032c57610100808354040283529160200191610357565b820191906000526020600020905b81548152906001019060200180831161033a57829003601f168201915b505050505081565b600082829091806001815401808255809150506001900390600052602060002001600090919290919290919290919250918261039c929190610c02565b505050565b600281600581106103b157600080fd5b0160009150905080546103c3906109eb565b80601f01602080910402602001604051908101604052809291908181526020018280546103ef906109eb565b801561043c5780601f106104115761010080835404028352916020019161043c565b820191906000526020600020905b81548152906001019060200180831161041f57829003601f168201915b505050505081565b600080548061045657610455610cd2565b5b6001900381819060005260206000200160006104729190610607565b9055565b60008080549050905090565b60606000805480602002602001604051908101604052809291908181526020016000905b828210156105525783829060005260206000200180546104c5906109eb565b80601f01602080910402602001604051908101604052809291908181526020018280546104f1906109eb565b801561053e5780601f106105135761010080835404028352916020019161053e565b820191906000526020600020905b81548152906001019060200180831161052157829003601f168201915b5050505050815260200190600101906104a6565b50505050905090565b6000818154811061056b57600080fd5b906000526020600020016000915090508054610586906109eb565b80601f01602080910402602001604051908101604052809291908181526020018280546105b2906109eb565b80156105ff5780601f106105d4576101008083540402835291602001916105ff565b820191906000526020600020905b8154815290600101906020018083116105e257829003601f168201915b505050505081565b508054610613906109eb565b6000825580601f106106255750610644565b601f0160209004906000526020600020908101906106439190610647565b5b50565b5b80821115610660576000816000905550600101610648565b5090565b600080fd5b600080fd5b6000819050919050565b6106818161066e565b811461068c57600080fd5b50565b60008135905061069e81610678565b92915050565b6000602082840312156106ba576106b9610664565b5b60006106c88482850161068f565b91505092915050565b600081519050919050565b600082825260208201905092915050565b60005b8381101561070b5780820151818401526020810190506106f0565b60008484015250505050565b6000601f19601f8301169050919050565b6000610733826106d1565b61073d81856106dc565b935061074d8185602086016106ed565b61075681610717565b840191505092915050565b6000602082019050818103600083015261077b8184610728565b905092915050565b600080fd5b600080fd5b600080fd5b60008083601f8401126107a8576107a7610783565b5b8235905067ffffffffffffffff8111156107c5576107c4610788565b5b6020830191508360018202830111156107e1576107e061078d565b5b9250929050565b600080602083850312156107ff576107fe610664565b5b600083013567ffffffffffffffff81111561081d5761081c610669565b5b61082985828601610792565b92509250509250929050565b61083e8161066e565b82525050565b60006020820190506108596000830184610835565b92915050565b600081519050919050565b600082825260208201905092915050565b6000819050602082019050919050565b600082825260208201905092915050565b60006108a7826106d1565b6108b1818561088b565b93506108c18185602086016106ed565b6108ca81610717565b840191505092915050565b60006108e1838361089c565b905092915050565b6000602082019050919050565b60006109018261085f565b61090b818561086a565b93508360208202850161091d8561087b565b8060005b85811015610959578484038952815161093a85826108d5565b9450610945836108e9565b925060208a01995050600181019050610921565b50829750879550505050505092915050565b6000602082019050818103600083015261098581846108f6565b905092915050565b7f4e487b7100000000000000000000000000000000000000000000000000000000600052603260045260246000fd5b7f4e487b7100000000000000000000000000000000000000000000000000000000600052602260045260246000fd5b60006002820490506001821680610a0357607f821691505b602082108103610a1657610a156109bc565b5b50919050565b600082905092915050565b7f4e487b7100000000000000000000000000000000000000000000000000000000600052604160045260246000fd5b60008190508160005260206000209050919050565b60006020601f8301049050919050565b600082821b905092915050565b600060088302610ab87fffffffffffffffffffffffffffffffffffffffffffffffffffffffffffffffff82610a7b565b610ac28683610a7b565b95508019841693508086168417925050509392505050565b6000819050919050565b6000610aff610afa610af58461066e565b610ada565b61066e565b9050919050565b6000819050919050565b610b1983610ae4565b610b2d610b2582610b06565b848454610a88565b825550505050565b600090565b610b42610b35565b610b4d818484610b10565b505050565b5b81811015610b7157610b66600082610b3a565b600181019050610b53565b5050565b601f821115610bb657610b8781610a56565b610b9084610a6b565b81016020851015610b9f578190505b610bb3610bab85610a6b565b830182610b52565b50505b505050565b600082821c905092915050565b6000610bd960001984600802610bbb565b1980831691505092915050565b6000610bf28383610bc8565b9150826002028217905092915050565b610c0c8383610a1c565b67ffffffffffffffff811115610c2557610c24610a27565b5b610c2f82546109eb565b610c3a828285610b75565b6000601f831160018114610c695760008415610c57578287013590505b610c618582610be6565b865550610cc9565b601f198416610c7786610a56565b60005b82811015610c9f57848901358255600182019150602085019450602081019050610c7a565b86831015610cbc5784890135610cb8601f891682610bc8565b8355505b6001600288020188555050505b50505050505050565b7f4e487b7100000000000000000000000000000000000000000000000000000000600052603160045260246000fdfea26469706673582212209e87cef8ae3db6641e9ce6d70340a91703dbfb12febc89bc0a536d117a9fc69d64736f6c63430008130033",
  "immutableReferences": {},
  "source": "// SPDX-License-Identifier: MIT\r\npragma solidity ^0.8.19;\r\n\r\ncontract Array {\r\n    string[] public strArray;\r\n    string[] public strArray1 = ['akai', 'siroi', 'kuroi'];\r\n    string[5] public strFixedArray;\r\n\r\n    function getArrayMember(uint index) public view returns(string memory) {\r\n        return strArray1[index];\r\n    }\r\n\r\n    function getWholeArray() public view returns(string[] memory) {\r\n        return strArray;\r\n    }\r\n\r\n    function push(string calldata _str) public {\r\n        strArray.push(_str);\r\n    }\r\n\r\n    function pop() public {\r\n        strArray.pop();\r\n    }\r\n\r\n    function getLength() public view returns(uint){\r\n        return strArray.length;\r\n    }\r\n\r\n    function removeCertainMember(uint index) public {\r\n        delete strArray[index];\r\n    }\r\n}\r\n\r\ncontract removeMember {\r\n    uint[] public arr;\r\n\r\n    function removeMem(uint index) public {\r\n        require(index < arr.length, \"Index is out of bound\");\r\n        for(uint i = index; i < arr.length - 1; i++) {\r\n            arr[i] = arr[i + 1];\r\n        }\r\n        arr.pop();\r\n    }   \r\n    function removeMemFromArr(uint[] memory arrs, uint index) public {\r\n        require(index < arrs.length, \"Index is out of bound\");\r\n        require(arrs.length > 0, \"Array is empty\"); // Add a check for non-empty array\r\n        for(uint i = index; i < arrs.length - 1; i++) {\r\n            arrs[i] = arrs[i + 1];\r\n        }\r\n        arr.pop();\r\n    }  \r\n}",
  "sourcePath": "E:\\myGitSpace\\SolidityExample\\Array\\contracts\\Array.sol",
  "compiler": {
    "name": "solc",
    "version": "0.8.19+commit.7dd6d404.Emscripten.clang"
  },
  "schemaVersion": "3.4.16",
  "updatedAt": "2024-01-29T21:19:12.604Z",
  "networkType": "ethereum",
  "devdoc": {
    "kind": "dev",
    "methods": {},
    "version": 1
  },
  "userdoc": {
    "kind": "user",
    "methods": {},
    "version": 1
  }
}