{
  "contractName": "removeMember",
  "abi": [
    {
      "inputs": [
        {
          "internalType": "uint256",
          "name": "",
          "type": "uint256"
        }
      ],
      "name": "arr",
      "outputs": [
        {
          "internalType": "uint256",
          "name": "",
          "type": "uint256"
        }
      ],
      "stateMutability": "view",
      "type": "function",
      "constant": true
    },
    {
      "inputs": [
        {
          "internalType": "uint256",
          "name": "index",
          "type": "uint256"
        }
      ],
      "name": "removeMem",
      "outputs": [],
      "stateMutability": "nonpayable",
      "type": "function"
    },
    {
      "inputs": [
        {
          "internalType": "uint256[]",
          "name": "arrs",
          "type": "uint256[]"
        },
        {
          "internalType": "uint256",
          "name": "index",
          "type": "uint256"
        }
      ],
      "name": "removeMemFromArr",
      "outputs": [],
      "stateMutability": "nonpayable",
      "type": "function"
    }
  ],
  "bytecode": "0x608060405234801561001057600080fd5b5061079e806100206000396000f3fe608060405234801561001057600080fd5b50600436106100415760003560e01c806371e5ee5f14610046578063944565f914610076578063adf0232714610092575b600080fd5b610060600480360381019061005b9190610336565b6100ae565b60405161006d9190610372565b60405180910390f35b610090600480360381019061008b9190610336565b6100d2565b005b6100ac60048036038101906100a791906104e6565b6101c4565b005b600081815481106100be57600080fd5b906000526020600020016000915090505481565b6000805490508110610119576040517f08c379a00000000000000000000000000000000000000000000000000000000081526004016101109061059f565b60405180910390fd5b60008190505b600160008054905061013191906105ee565b8110156101985760006001826101479190610622565b8154811061015857610157610656565b5b90600052602060002001546000828154811061017757610176610656565b5b9060005260206000200181905550808061019090610685565b91505061011f565b5060008054806101ab576101aa6106cd565b5b6001900381819060005260206000200160009055905550565b81518110610207576040517f08c379a00000000000000000000000000000000000000000000000000000000081526004016101fe9061059f565b60405180910390fd5b600082511161024b576040517f08c379a000000000000000000000000000000000000000000000000000000000815260040161024290610748565b60405180910390fd5b60008190505b6001835161025f91906105ee565b8110156102bf57826001826102749190610622565b8151811061028557610284610656565b5b60200260200101518382815181106102a05761029f610656565b5b60200260200101818152505080806102b790610685565b915050610251565b5060008054806102d2576102d16106cd565b5b600190038181906000526020600020016000905590555050565b6000604051905090565b600080fd5b600080fd5b6000819050919050565b61031381610300565b811461031e57600080fd5b50565b6000813590506103308161030a565b92915050565b60006020828403121561034c5761034b6102f6565b5b600061035a84828501610321565b91505092915050565b61036c81610300565b82525050565b60006020820190506103876000830184610363565b92915050565b600080fd5b6000601f19601f8301169050919050565b7f4e487b7100000000000000000000000000000000000000000000000000000000600052604160045260246000fd5b6103db82610392565b810181811067ffffffffffffffff821117156103fa576103f96103a3565b5b80604052505050565b600061040d6102ec565b905061041982826103d2565b919050565b600067ffffffffffffffff821115610439576104386103a3565b5b602082029050602081019050919050565b600080fd5b600061046261045d8461041e565b610403565b905080838252602082019050602084028301858111156104855761048461044a565b5b835b818110156104ae578061049a8882610321565b845260208401935050602081019050610487565b5050509392505050565b600082601f8301126104cd576104cc61038d565b5b81356104dd84826020860161044f565b91505092915050565b600080604083850312156104fd576104fc6102f6565b5b600083013567ffffffffffffffff81111561051b5761051a6102fb565b5b610527858286016104b8565b925050602061053885828601610321565b9150509250929050565b600082825260208201905092915050565b7f496e646578206973206f7574206f6620626f756e640000000000000000000000600082015250565b6000610589601583610542565b915061059482610553565b602082019050919050565b600060208201905081810360008301526105b88161057c565b9050919050565b7f4e487b7100000000000000000000000000000000000000000000000000000000600052601160045260246000fd5b60006105f982610300565b915061060483610300565b925082820390508181111561061c5761061b6105bf565b5b92915050565b600061062d82610300565b915061063883610300565b92508282019050808211156106505761064f6105bf565b5b92915050565b7f4e487b7100000000000000000000000000000000000000000000000000000000600052603260045260246000fd5b600061069082610300565b91507fffffffffffffffffffffffffffffffffffffffffffffffffffffffffffffffff82036106c2576106c16105bf565b5b600182019050919050565b7f4e487b7100000000000000000000000000000000000000000000000000000000600052603160045260246000fd5b7f417272617920697320656d707479000000000000000000000000000000000000600082015250565b6000610732600e83610542565b915061073d826106fc565b602082019050919050565b6000602082019050818103600083015261076181610725565b905091905056fea26469706673582212205f3e854e9d0895bc5de014c9c7d70c14862c1b129df59050a9c74637a53e2e2a64736f6c63430008130033",
  "immutableReferences": {},
  "source": "// SPDX-License-Identifier: MIT\r\npragma solidity ^0.8.19;\r\n\r\ncontract Array {\r\n    string[] public strArray;\r\n    string[] public strArray1 = ['akai', 'siroi', 'kuroi'];\r\n    string[5] public strFixedArray;\r\n\r\n    function getArrayMember(uint index) public view returns(string memory) {\r\n        return strArray1[index];\r\n    }\r\n\r\n    function getWholeArray() public view returns(string[] memory) {\r\n        return strArray;\r\n    }\r\n\r\n    function push(string calldata _str) public {\r\n        strArray.push(_str);\r\n    }\r\n\r\n    function pop() public {\r\n        strArray.pop();\r\n    }\r\n\r\n    function getLength() public view returns(uint){\r\n        return strArray.length;\r\n    }\r\n\r\n    function removeCertainMember(uint index) public {\r\n        delete strArray[index];\r\n    }\r\n}\r\n\r\ncontract removeMember {\r\n    uint[] public arr;\r\n\r\n    function removeMem(uint index) public {\r\n        require(index < arr.length, \"Index is out of bound\");\r\n        for(uint i = index; i < arr.length - 1; i++) {\r\n            arr[i] = arr[i + 1];\r\n        }\r\n        arr.pop();\r\n    }   \r\n    function removeMemFromArr(uint[] memory arrs, uint index) public {\r\n        require(index < arrs.length, \"Index is out of bound\");\r\n        require(arrs.length > 0, \"Array is empty\"); // Add a check for non-empty array\r\n        for(uint i = index; i < arrs.length - 1; i++) {\r\n            arrs[i] = arrs[i + 1];\r\n        }\r\n        arr.pop();\r\n    }  \r\n}",
  "sourcePath": "E:\\myGitSpace\\SolidityExample\\Array\\contracts\\Array.sol",
  "compiler": {
    "name": "solc",
    "version": "0.8.19+commit.7dd6d404.Emscripten.clang"
  },
  "schemaVersion": "3.4.16",
  "updatedAt": "2024-01-29T21:19:12.611Z",
  "networkType": "ethereum",
  "devdoc": {
    "kind": "dev",
    "methods": {},
    "version": 1
  },
  "userdoc": {
    "kind": "user",
    "methods": {},
    "version": 1
  }
}