{
  "contractName": "Gas",
  "abi": [
    {
      "inputs": [],
      "name": "i",
      "outputs": [
        {
          "internalType": "uint256",
          "name": "",
          "type": "uint256"
        }
      ],
      "stateMutability": "view",
      "type": "function",
      "constant": true
    },
    {
      "inputs": [],
      "name": "inc",
      "outputs": [],
      "stateMutability": "nonpayable",
      "type": "function"
    }
  ],
  "bytecode": "0x60806040526000805534801561001457600080fd5b5061015e806100246000396000f3fe608060405234801561001057600080fd5b50600436106100365760003560e01c8063371303c01461003b578063e5aa3d5814610045575b600080fd5b610043610063565b005b61004d61008b565b60405161005a91906100aa565b60405180910390f35b5b60011561008957600160008082825461007d91906100f4565b92505081905550610064565b565b60005481565b6000819050919050565b6100a481610091565b82525050565b60006020820190506100bf600083018461009b565b92915050565b7f4e487b7100000000000000000000000000000000000000000000000000000000600052601160045260246000fd5b60006100ff82610091565b915061010a83610091565b9250828201905080821115610122576101216100c5565b5b9291505056fea2646970667358221220754f1af6a4afd26fc7c682f05b0a5ed5201a114876f79eb8afc3e0c9c12912c264736f6c63430008130033",
  "immutableReferences": {},
  "source": "// SPDX-License-Identifier: MIT\r\npragma solidity ^0.8.19;\r\n\r\ncontract Gas {\r\n    uint public i = 0;\r\n\r\n    function inc() public {\r\n        while(true) {\r\n            i += 1;\r\n        }\r\n    }\r\n}",
  "sourcePath": "E:\\myGitSpace\\SolidityExample\\Gas\\contracts\\Gas.sol",
  "compiler": {
    "name": "solc",
    "version": "0.8.19+commit.7dd6d404.Emscripten.clang"
  },
  "schemaVersion": "3.4.16",
  "updatedAt": "2024-01-29T15:21:05.474Z",
  "networkType": "ethereum",
  "devdoc": {
    "kind": "dev",
    "methods": {},
    "version": 1
  },
  "userdoc": {
    "kind": "user",
    "methods": {},
    "version": 1
  }
}