{
  "contractName": "Mapping",
  "abi": [
    {
      "inputs": [
        {
          "internalType": "address",
          "name": "",
          "type": "address"
        }
      ],
      "name": "myMap",
      "outputs": [
        {
          "internalType": "uint256",
          "name": "",
          "type": "uint256"
        }
      ],
      "stateMutability": "view",
      "type": "function",
      "constant": true
    },
    {
      "inputs": [
        {
          "internalType": "address",
          "name": "_addr",
          "type": "address"
        }
      ],
      "name": "getMap",
      "outputs": [
        {
          "internalType": "uint256",
          "name": "",
          "type": "uint256"
        }
      ],
      "stateMutability": "view",
      "type": "function",
      "constant": true
    },
    {
      "inputs": [
        {
          "internalType": "address",
          "name": "_addr",
          "type": "address"
        },
        {
          "internalType": "uint256",
          "name": "_val",
          "type": "uint256"
        }
      ],
      "name": "setMap",
      "outputs": [],
      "stateMutability": "nonpayable",
      "type": "function"
    },
    {
      "inputs": [
        {
          "internalType": "address",
          "name": "_addr",
          "type": "address"
        }
      ],
      "name": "remove",
      "outputs": [],
      "stateMutability": "nonpayable",
      "type": "function"
    }
  ],
  "bytecode": "0x608060405234801561001057600080fd5b5061033b806100206000396000f3fe608060405234801561001057600080fd5b506004361061004c5760003560e01c80631947bd2f1461005157806327cbd5291461008157806329092d0e146100b1578063af9ef29f146100cd575b600080fd5b61006b60048036038101906100669190610238565b6100e9565b604051610078919061027e565b60405180910390f35b61009b60048036038101906100969190610238565b610131565b6040516100a8919061027e565b60405180910390f35b6100cb60048036038101906100c69190610238565b610149565b005b6100e760048036038101906100e291906102c5565b61018e565b005b60008060008373ffffffffffffffffffffffffffffffffffffffff1673ffffffffffffffffffffffffffffffffffffffff168152602001908152602001600020549050919050565b60006020528060005260406000206000915090505481565b6000808273ffffffffffffffffffffffffffffffffffffffff1673ffffffffffffffffffffffffffffffffffffffff1681526020019081526020016000206000905550565b806000808473ffffffffffffffffffffffffffffffffffffffff1673ffffffffffffffffffffffffffffffffffffffff168152602001908152602001600020819055505050565b600080fd5b600073ffffffffffffffffffffffffffffffffffffffff82169050919050565b6000610205826101da565b9050919050565b610215816101fa565b811461022057600080fd5b50565b6000813590506102328161020c565b92915050565b60006020828403121561024e5761024d6101d5565b5b600061025c84828501610223565b91505092915050565b6000819050919050565b61027881610265565b82525050565b6000602082019050610293600083018461026f565b92915050565b6102a281610265565b81146102ad57600080fd5b50565b6000813590506102bf81610299565b92915050565b600080604083850312156102dc576102db6101d5565b5b60006102ea85828601610223565b92505060206102fb858286016102b0565b915050925092905056fea264697066735822122077d382fd7c0df93c2ee0bd656c05eb0ac2840b4099d342df1fa79f66b694338e64736f6c63430008130033",
  "immutableReferences": {},
  "source": "// SPDX-License-Identifier: MIT\r\npragma solidity ^0.8.19;\r\n\r\ncontract Mapping {\r\n    // mapping from address to uint\r\n    mapping(address => uint) public myMap;\r\n\r\n    function getMap(address _addr) public view returns(uint) {\r\n        return myMap[_addr];\r\n    }\r\n\r\n    function setMap(address _addr, uint _val) public {\r\n        myMap[_addr] = _val;\r\n    }\r\n\r\n    function remove(address _addr) public {\r\n        delete myMap[_addr];\r\n    }\r\n}\r\n\r\ncontract NestedMapping {\r\n    // Nested mapping (mapping from address to another mapping)\r\n    mapping(address => mapping(uint => bool)) public nestMap;\r\n\r\n    function getNestMap(address _addr, uint _val) public view returns(bool) {\r\n        return nestMap[_addr][_val];\r\n    }\r\n\r\n    function setNestMap(address _addr, uint _val, bool boo) public {\r\n        nestMap[_addr][_val] = boo;\r\n    }\r\n\r\n    function removeNestMap(address _addr, uint _val) public {\r\n        delete nestMap[_addr][_val];\r\n    }\r\n}",
  "sourcePath": "E:\\myGitSpace\\SolidityExample\\Mapping\\contracts\\Mapping.sol",
  "compiler": {
    "name": "solc",
    "version": "0.8.19+commit.7dd6d404.Emscripten.clang"
  },
  "schemaVersion": "3.4.16",
  "updatedAt": "2024-01-29T16:34:32.606Z",
  "networkType": "ethereum",
  "devdoc": {
    "kind": "dev",
    "methods": {},
    "version": 1
  },
  "userdoc": {
    "kind": "user",
    "methods": {},
    "version": 1
  }
}