{
  "contractName": "NestedMapping",
  "abi": [
    {
      "inputs": [
        {
          "internalType": "address",
          "name": "",
          "type": "address"
        },
        {
          "internalType": "uint256",
          "name": "",
          "type": "uint256"
        }
      ],
      "name": "nestMap",
      "outputs": [
        {
          "internalType": "bool",
          "name": "",
          "type": "bool"
        }
      ],
      "stateMutability": "view",
      "type": "function"
    },
    {
      "inputs": [
        {
          "internalType": "address",
          "name": "_addr",
          "type": "address"
        },
        {
          "internalType": "uint256",
          "name": "_val",
          "type": "uint256"
        }
      ],
      "name": "getNestMap",
      "outputs": [
        {
          "internalType": "bool",
          "name": "",
          "type": "bool"
        }
      ],
      "stateMutability": "view",
      "type": "function"
    },
    {
      "inputs": [
        {
          "internalType": "address",
          "name": "_addr",
          "type": "address"
        },
        {
          "internalType": "uint256",
          "name": "_val",
          "type": "uint256"
        },
        {
          "internalType": "bool",
          "name": "boo",
          "type": "bool"
        }
      ],
      "name": "setNestMap",
      "outputs": [],
      "stateMutability": "nonpayable",
      "type": "function"
    },
    {
      "inputs": [
        {
          "internalType": "address",
          "name": "_addr",
          "type": "address"
        },
        {
          "internalType": "uint256",
          "name": "_val",
          "type": "uint256"
        }
      ],
      "name": "removeNestMap",
      "outputs": [],
      "stateMutability": "nonpayable",
      "type": "function"
    }
  ],
  "bytecode": "0x608060405234801561001057600080fd5b50610412806100206000396000f3fe608060405234801561001057600080fd5b506004361061004c5760003560e01c8063319a17c3146100515780637446314c1461006d578063a65d7bb61461009d578063e59ecf98146100b9575b600080fd5b61006b600480360381019061006691906102e7565b6100e9565b005b610087600480360381019061008291906102e7565b61014c565b6040516100949190610342565b60405180910390f35b6100b760048036038101906100b29190610389565b6101b3565b005b6100d360048036038101906100ce91906102e7565b61021f565b6040516100e09190610342565b60405180910390f35b6000808373ffffffffffffffffffffffffffffffffffffffff1673ffffffffffffffffffffffffffffffffffffffff168152602001908152602001600020600082815260200190815260200160002060006101000a81549060ff02191690555050565b60008060008473ffffffffffffffffffffffffffffffffffffffff1673ffffffffffffffffffffffffffffffffffffffff168152602001908152602001600020600083815260200190815260200160002060009054906101000a900460ff16905092915050565b806000808573ffffffffffffffffffffffffffffffffffffffff1673ffffffffffffffffffffffffffffffffffffffff168152602001908152602001600020600084815260200190815260200160002060006101000a81548160ff021916908315150217905550505050565b60006020528160005260406000206020528060005260406000206000915091509054906101000a900460ff1681565b600080fd5b600073ffffffffffffffffffffffffffffffffffffffff82169050919050565b600061027e82610253565b9050919050565b61028e81610273565b811461029957600080fd5b50565b6000813590506102ab81610285565b92915050565b6000819050919050565b6102c4816102b1565b81146102cf57600080fd5b50565b6000813590506102e1816102bb565b92915050565b600080604083850312156102fe576102fd61024e565b5b600061030c8582860161029c565b925050602061031d858286016102d2565b9150509250929050565b60008115159050919050565b61033c81610327565b82525050565b60006020820190506103576000830184610333565b92915050565b61036681610327565b811461037157600080fd5b50565b6000813590506103838161035d565b92915050565b6000806000606084860312156103a2576103a161024e565b5b60006103b08682870161029c565b93505060206103c1868287016102d2565b92505060406103d286828701610374565b915050925092509256fea264697066735822122060ebd9d3e8580bb9e39da3b444380a6445172819a79e871db1221792695e68be64736f6c63430008130033",
  "immutableReferences": {},
  "source": "// SPDX-License-Identifier: MIT\r\npragma solidity ^0.8.19;\r\n\r\ncontract Mapping {\r\n    // mapping from address to uint\r\n    mapping(address => uint) public myMap;\r\n\r\n    function getMap(address _addr) public view returns(uint) {\r\n        return myMap[_addr];\r\n    }\r\n\r\n    function setMap(address _addr, uint _val) public {\r\n        myMap[_addr] = _val;\r\n    }\r\n\r\n    function remove(address _addr) public {\r\n        delete myMap[_addr];\r\n    }\r\n}\r\n\r\ncontract NestedMapping {\r\n    // Nested mapping (mapping from address to another mapping)\r\n    mapping(address => mapping(uint => bool)) public nestMap;\r\n\r\n    function getNestMap(address _addr, uint _val) public view returns(bool) {\r\n        return nestMap[_addr][_val];\r\n    }\r\n\r\n    function setNestMap(address _addr, uint _val, bool boo) public {\r\n        nestMap[_addr][_val] = boo;\r\n    }\r\n\r\n    function removeNestMap(address _addr, uint _val) public {\r\n        delete nestMap[_addr][_val];\r\n    }\r\n}",
  "sourcePath": "E:\\myGitSpace\\SolidityExample\\Mapping\\contracts\\Mapping.sol",
  "compiler": {
    "name": "solc",
    "version": "0.8.19+commit.7dd6d404.Emscripten.clang"
  },
  "schemaVersion": "3.4.16",
  "updatedAt": "2024-01-29T15:58:53.787Z",
  "devdoc": {
    "kind": "dev",
    "methods": {},
    "version": 1
  },
  "userdoc": {
    "kind": "user",
    "methods": {},
    "version": 1
  }
}